:020000040800F2
:1000000000060020E9030008D5110008551100087A
:10001000AD1100085511000881110008EB0300081C
:10002000EB030008EB030008EB030008F955000898
:10003000EB030008EB030008EB030008EB030008E8
:10004000EB030008EB030008EB030008EB030008D8
:10005000EB030008EB030008D56A0008016B0008F9
:100060002D6B0008596B0008856B0008EB03000836
:10007000EB030008EB030008EB030008EB030008A8
:10008000EB030008EB030008EB030008EB03000898
:10009000EB030008EB030008EB030008B16B00085A
:1000A000EB030008EB030008EB030008EB03000878
:1000B000EB030008EB030008EB030008EB03000868
:1000C000EB030008EB030008EB030008EB03000858
:1000D000EB030008EB030008896C00089D6C000826
:1000E000156C0008EB030008EB030008EB030008A5
:1000F000EB030008EB030008EB030008EB03000828
:10010000EB030008EB030008C56C0008EB030008D4
:10011000EB030008EB030008EB030008EB03000807
:10012000EB030008EB030008EB030008EB030008F7
:10013000EB030008EB030008EB030008EB030008E7
:10014000EB030008EB030008EB030008EB030008D7
:10015000EB030008EB030008EB030008EB030008C7
:10016000EB030008EB030008EB030008EB030008B7
:10017000EB03000865610008EB030008EB030008CF
:10018000EB030008EB030008B16C0008EB03000868
:10019000EB030008EB030008EB030008EB03000887
:1001A000EB030008EB030008EB030008EB03000877
:1001B000EB030008EB030008EB030008EB03000867
:1001C000EB030008EB030008EB030008EB03000857
:1001D000EB03000851610008EB030008EB03000883
:1001E000EB030008EB030008EB030008EB03000837
:1001F000EB030008EB030008EB030008EB03000827
:10020000EB030008EB030008EB030008EB03000816
:10021000EB030008EB030008EB030008EB03000806
:10022000EB030008EB030008EB030008EB030008F6
:10023000EB030008EB030008EB030008EB030008E6
:10024000EB030008EB030008EB030008EB030008D6
:10025000EB030008EB030008EB030008EB030008C6
:10026000EB030008EB030008EB030008EB030008B6
:10027000EB030008EB030008EB030008EB030008A6
:10028000EB030008EB030008EB030008EB03000896
:10029000EB030008EB030008EB030008EB03000886
:1002A0004ECF4EA5A6B6F7295FC8DD56AC4821490A
:1002B00082B8C4A2F08853678D159175B481B45C7F
:1002C000CF332D752821A822B27347917F7A17D09A
:1002D0003EFC84A9A4766B7358E33E8DE330D37E55
:1002E0008363D3A0A8564A005896DBA5B8CECFFCAE
:1002F0008C0772719EFAB24D4227090759712B641F
:10030000034AA19F695D84F2B23186FDF14F3392B9
:10031000C4C8691AFE13B19B59E5CE1BCF28B1970B
:100320006086DC70CFDB1D270000000000000000AD
:1003300000000000000000000000000000000000BD
:1003400000000000000000000000000000000000AD
:10035000000000000000000000000000000000009D
:10036000000000000000000000000000000000008D
:10037000000000000000000000000000000000007D
:10038000000000000000000000000000000000006D
:10039000000000000000000000000000000000005D
:1003A000000000000000000000000000000000004D
:1003B000000000000000000000000000000000003D
:1003C000000000000000000000000000000000002D
:1003D000000000000000000000000000000000001D
:1003E000000000000000000002E000F000F8FEE75E
:1003F0003B48804772B63B4880F308883A4880F310
:1004000009883A484EF60851CEF20001086040F2E1
:100410000000CCF200004EF63471CEF2000108600C
:10042000BFF34F8FBFF36F8F40F20000C0F2F000B8
:100430004EF68851CEF200010860BFF34F8FBFF334
:100440006F8F4FF00000E1EE100A4EF63C71CEF2D5
:1004500000010860062080F31488BFF36F8F05F059
:1004600089F905F02BF906F0EDF84FF055302049E9
:100470001C4A91423CBF41F8040BFAE71D491A4A55
:1004800091423CBF41F8040BFAE71B491B4A1C4B45
:100490009A423EBF51F8040B42F8040BF8E70020E3
:1004A0001849194A91423CBF41F8040BFAE705F09C
:1004B00043F906F04BF9154C154DAC4203DA54F8EC
:1004C000041B8847F9E700F043F8124C124DAC4288
:1004D00003DA54F8041B8847F9E705F02BB900004C
:1004E000D9110008000600200022002000000008AA
:1004F00000000020000600203877000800220020BD
:100500005C220020602200209C500020A0020008F5
:10051000A0020008A0020008A00200082DE9F04F88
:100520002DED108AC1F80CD0D0F80CD0BDEC108A9B
:10053000BDE8F08F002383F311882846A0470020F0
:1005400004F084FBFEE704F0BFFA00DFFEE70000E2
:1005500038B505F02DF830B11A4B00220E211A7271
:100560005A729972DA7204F0F9FF054605F02EF816
:10057000044610BB144B9D4221D001339D4241F2F1
:10058000883512BF04460025012400F0BDFE20B1CD
:100590000025032000F06AF82C46002004F0E8FF54
:1005A0000CB100F079F800F075FD00F01FFC284652
:1005B00000F02CF900F070F8F9E70025E5E70546B2
:1005C000E3E700BF00220020010007B008B500F0FB
:1005D000D9FBA0F120035842584108BD07B541F2AC
:1005E0001203022101A8ADF8043000F0E9FB03B0CA
:1005F0005DF804FB38B5202383F311881748C368DE
:100600000BB104F0A9FB0023154A4FF47A7113488B
:1006100004F066FB002383F31188124C236813B1A6
:100620002368013B2360636813B16368013B636027
:100630000D4D2B7833B963687BB9022000F0A4FC20
:10064000322363602B78032B07D163682BB9022018
:1006500000F09AFC4FF47A73636038BD602200208A
:10066000F50500087C23002074220020084B187038
:1006700003280CD8DFE800F008050208022000F08B
:1006800079BC022000F06CBC024B00225A6070471B
:10069000742200207C230020F8B500F035FE30B134
:1006A000524B03221A700022514B5A60F8BD514B35
:1006B000514A1C4619680131F8D004339342F9D1EC
:1006C00062684E4B9A42F1D94D4B9B6803F100632F
:1006D00003F500339A42E9D2002000F0A1FB02208A
:1006E000FFF7C4FF474B0021D3F8E820C3F8E81018
:1006F000D3F81021C3F81011D3F81021D3F8EC204F
:10070000C3F8EC10D3F81421C3F81411D3F8142152
:10071000D3F8F020C3F8F010D3F81821C3F818115B
:10072000D3F81821D3F8802042F00062C3F880206B
:10073000D3F8802022F00062C3F88020D3F8802014
:10074000D3F8802042F00072C3F88020D3F88020D4
:1007500022F00072C3F88020D3F8803072B64FF0D8
:10076000E023C3F8084DD4E90004BFF34F8FBFF373
:100770006F8F254AC2F88410BFF34F8F536923F45B
:1007800080335361BFF34F8FD2F8803043F6E07669
:10079000C3F3C905C3F34E335B0103EA060C2946D4
:1007A0004CEA81770139C2F87472F9D2203B13F117
:1007B000200FF2D1BFF34F8FBFF36F8FBFF34F8F77
:1007C000BFF36F8F536923F4003353610023C2F8E2
:1007D0005032BFF34F8FBFF36F8F202383F3118805
:1007E000854680F30888204760E700BF7422002018
:1007F0007C2300200000020820000208FFFF0108FF
:10080000002200200044025800ED00E02DE9F04FE6
:1008100093B0A84B2022FF2100900AA89D6800F009
:10082000E3FBA54A1378A3B90121A4481170C36062
:10083000202383F31188C3680BB104F08DFA0023E1
:100840009F4A4FF47A719D4804F04AFA002383F3DB
:100850001188009B13B19B4B009A1A609A4A137837
:10086000032B03D000231370964A53604FF0000A05
:10087000009CD3465646D146012000F07BFB24B1B4
:10088000904B1B68002B00F00E82002000F07AFADB
:100890000390039B002BF2DB012000F061FB039B24
:1008A000213B162BE8D801A252F823F009090008D1
:1008B00031090008C509000879080008790800080E
:1008C000790800084D0A00081B0C0008350B0008C9
:1008D000970B0008BF0B0008E50B0008790800081B
:1008E000F70B000879080008690C0008A90900083E
:1008F00079080008AD0C000815090008A9090008CE
:1009000079080008970B00080220FFF75FFE002817
:1009100040F0F381009B022105A8BAF1000F08BF47
:100920001C4641F21233ADF8143000F049FAA3E747
:100930004FF47A7000F026FA071EEBDB0220FFF777
:1009400045FE0028E6D0013F052F00F2D881DFE800
:1009500007F0030A0D1013360523042105A805939B
:1009600000F02EFA17E004215248F9E70421574815
:10097000F6E704215648F3E74FF01C08404608F11B
:10098000040800F04FFA0421059005A800F018FAB9
:10099000B8F12C0FF2D101204FF0000900FA07F74F
:1009A00047EA0B0B5FFA8BFB00F06AFB26B10BF0FA
:1009B0000B030B2B08BF0024FFF710FE5CE704219C
:1009C0004448CDE7002EA5D00BF00B030B2BA1D193
:1009D0000220FFF7FBFD074600289BD001200026E0
:1009E00000F01EFA0220FFF741FE5FFA86F840464B
:1009F00000F026FA044688B14046013600F030FA8D
:100A00000028F2D1BA46044641F21213022105A889
:100A10003E46ADF8143000F0D3F92DE7254601200D
:100A2000FFF724FE234B9B68AB4207D9284600F012
:100A3000F9F9013040F066810435F3E70025224BD7
:100A4000BA463E461D701F4B5D60ADE7002E3FF479
:100A500061AF0BF00B030B2B7FF45CAF0220FFF7B1
:100A600005FE322000F08EF9B0F10008FFF652AF1B
:100A700018F003077FF44EAF0E4A08EB05039268A7
:100A800093423FF647AFB8F5807F3FF743AF124B35
:100A9000B845019322DD4FF47A7000F073F90390AA
:100AA000039A002AFFF636AF039A0137019B03F839
:100AB000012BEDE700220020782300206022002097
:100AC000F50500087C230020742200200422002069
:100AD000082200200C22002078220020C820FFF7E6
:100AE00075FD074600283FF415AF1F2D11D8C5F13D
:100AF00020020AAB25F0030084494245184428BF70
:100B00004246019200F04AFA019AFF217F4800F024
:100B10006BFA4FEAA803C8F387027C492846019381
:100B200000F06AFA064600283FF46EAF019B05EB21
:100B3000830539E70220FFF749FD00283FF4EAAEBC
:100B400000F0AAF900283FF4E5AE0027B846704B44
:100B50009B68BB4218D91F2F11D80A9B01330ED0B6
:100B600027F0030312AA134453F8203C0593404690
:100B7000042205A9043700F04DFB8046E7E738461C
:100B800000F050F90590F2E7CDF81480042105A893
:100B900000F016F908E70023642104A8049300F08C
:100BA00005F900287FF4B6AE0220FFF70FFD0028FC
:100BB0003FF4B0AE049800F065F90590E6E7002335
:100BC000642104A8049300F0F1F800287FF4A2AE99
:100BD0000220FFF7FBFC00283FF49CAE049800F0D5
:100BE00053F9EAE70220FFF7F1FC00283FF492AE48
:100BF00000F062F9E1E70220FFF7E8FC00283FF48B
:100C000089AE05A9142000F05DF90746042104907F
:100C100004A800F0D5F83946B9E7322000F0B2F860
:100C2000071EFFF677AEBB077FF474AE384A07EBBA
:100C30000903926893423FF66DAE0220FFF7C6FCAF
:100C400000283FF467AE27F003074F44B9453FF44F
:100C5000ABAE484609F1040900F0E4F80421059020
:100C600005A800F0ADF8F1E74FF47A70FFF7AEFC9D
:100C700000283FF44FAE00F00FF9002844D00A9B43
:100C800001330BD008220AA9002000F0B5F9002892
:100C90003AD02022FF210AA800F0A6F9FFF79EFC17
:100CA0001C4803F0D9FF13B0BDE8F08F002E3FF4CD
:100CB00031AE0BF00B030B2B7FF42CAE0023642121
:100CC00005A8059300F072F8074600287FF422AECD
:100CD0000220FFF77BFC804600283FF41BAEFFF7A5
:100CE0007DFC41F2883003F0B7FF059800F012FA5E
:100CF00046463C4600F0C4F9BEE5064654E64FF0D1
:100D0000000907E6BA467FE637467DE678220020EE
:100D100000220020A08601002DE9F84F4FF47A73DD
:100D200006460D46002402FB03F7DFF85080DFF88B
:100D3000509098F900305FFA84FA5A1C01D0A3420F
:100D400010D159F824002A4631460368D3F820B060
:100D50003B46D847854205D1074B012083F800A0C8
:100D6000BDE8F88F0134042CE3D14FF4FA7003F09E
:100D700073FF0020F4E700BFC823002010220020EA
:100D80000C6E0008002307B5024601210DF1070093
:100D90008DF80730FFF7C0FF20B19DF8070003B0C2
:100DA0005DF804FB4FF0FF30F9E700000A4604212C
:100DB00008B5FFF7B1FF80F00100C0B2404208BDA6
:100DC000074B0A4630B41978064B53F821400146C8
:100DD00023682046DD69044BAC4630BC604700BF49
:100DE000C82300200C6E0008A086010070B50A4ED2
:100DF00000240A4D04F0DCF93080286833888342EF
:100E000008D904F0D1F92B6804440133B4F5003F4C
:100E10002B60F2D370BD00BFCA23002084230020C2
:100E200004F0A4BA00F1006000F5003000687047DB
:100E300000F10060920000F5003004F01BBA0000E1
:100E4000054B1A68054B1B889B1A834202D9104434
:100E500004F0AAB90020704784230020CA23002090
:100E600038B5074D04462868204404F0A3F928B992
:100E700028682044BDE8384004F0AEB938BD00BF52
:100E8000842300200020704700F1FF5000F58F10F0
:100E9000D0F8000870470000064991F8243033B1BB
:100EA00000230822086A81F82430FFF7C1BF01201F
:100EB000704700BF88230020014B1868704700BFAF
:100EC0000010005C244BF0B51A680446234BC2F3B3
:100ED0000B06120C1F885868BE4293F9085028D0A0
:100EE0009F89BE4206D101200C2505FB00335868BE
:100EF00093F9085041F201039A421CD041F20303D6
:100F00009A421AD042F201039A4218D042F20303E5
:100F10009A4208BF5625621E0B46441E0A4493425D
:100F20000FD214F9016F581C6EB1034600F8016C22
:100F3000F5E70020D8E75A25EDE75925EBE75825D6
:100F4000E9E7184605E02C2482421C7001D9981C60
:100F50005D70401AF0BD00BF0010005C142200203C
:100F6000022803D1024B4FF080529A61704700BFB4
:100F700000100258022803D1024B4FF480529A61AC
:100F8000704700BF00100258022804D1024A53697A
:100F900083F480535361704700100258002310B54A
:100FA000934203D0CC5CC4540133F9E710BD000078
:100FB000013810B510F9013F3BB191F900409C4256
:100FC00003D11AB10131013AF4E71AB191F90020C5
:100FD000981A10BD1046FCE703460246D01A12F9D3
:100FE000011B0029FAD1704702440346934202D004
:100FF00003F8011BFAE770472DE9F8431F4D14462B
:101000000746884695F8242052BBDFF870909CB3C1
:1010100095F824302BB92022FF2148462F62FFF794
:10102000E3FF95F824004146C0F1080205EB80007B
:10103000A24228BF2246D6B29200FFF7AFFF95F832
:101040002430A41B17441E449044E4B2F6B2082E88
:1010500085F82460DBD1FFF71FFF0028D7D108E017
:101060002B6A03EB82038342CFD0FFF715FF0028E2
:10107000CBD10020BDE8F8830120FBE788230020C6
:10108000024B1A78024B1A70704700BFC823002029
:1010900010220020F8B5194C194803F005F8214634
:1010A000174803F02DF824681648D4F89020164EFF
:1010B000D2F80438154D43F00203114FC2F804383A
:1010C00003F0CAFD2046124903F028F9D4F8902015
:1010D0000424D2F8043823F00203C2F804384FF491
:1010E000E133336055F8040BB84202D0314602F0C8
:1010F00039FF013C14F0FF04F4D1F8BDD8740008A6
:10110000E032002040420F00B02300200C6E0008A7
:10111000E074000838B50B4B04461A780A4B53F8B4
:1011200022500A4B9D420CD0094B00211822184630
:10113000FFF75AFF046001462846BDE8384002F038
:1011400011BF38BDC82300200C6E0008E03200201B
:10115000B023002000B59BB0EFF3098168226846F8
:10116000FFF71CFFEFF30583044B9A6BDA6A9A6A68
:101170009A6A9A6A9A6A9A6A9B6AFEE700ED00E0A8
:1011800000B59BB0EFF3098168226846FFF706FFC0
:10119000EFF30583044B9A6B9A6A9A6A9A6A9A6A81
:1011A0009A6A9B6AFEE700BF00ED00E000B59BB0C5
:1011B000EFF3098168226846FFF7F0FEEFF305833D
:1011C000034B5A6B9A6A9A6A9A6A9A6A9B6AFEE712
:1011D00000ED00E0FEE7000000B595B0132101A886
:1011E00004F004FA9DF84F307BB10023132101A8CD
:1011F0008DF84F3004F0F4F9054BD3F8002882F352
:101200000888D3F804389847FEE715B05DF804FB6A
:101210000090F01F30B50A44084D91420DD011F8EE
:10122000013B5840082340F30004013B2C4013F0DD
:10123000FF0384EA5000F6D1EFE730BD2083B8ED1C
:1012400030B5002489B00B4D1C22214601A8009422
:10125000FFF7CAFE20226946281905F08FFD30B934
:101260002034B4F5A07FF5D1012009B030BD0020B5
:10127000FBE700BFA80200082DE9F047D8B00446FC
:101280000D4616461F46FFF7DBFF90BBA369482BB0
:1012900031D1082204F11C01184805F06FFD50BB44
:1012A0008246DFF85C80DFF85C904FF4B07200217A
:1012B0006846FFF799FE08EB0A0204F1240168462C
:1012C00002F0F0F92A464946684602F0F1F968460C
:1012D0003A46314602F0ECF9684602F0EBF928B1E3
:1012E0000AF1200ABAF5A07FDFD1122058B0BDE87C
:1012F000F0870020FAE71120F8E700BF306E000801
:10130000A8020008000002083E4A2DE9F3411068D7
:101310006B4651686A4603C308233B493B4805F0C6
:101320003DFD0446002834D10A24FFF789FF002838
:1013300063D0374A6B46106851686A4603C3082376
:101340003449324805F02AFD0546002855D0036986
:10135000B3F5F01F51D8428B8C2A4ED12E4A02444D
:1013600002F110018B4248D3103B284900209E1AFD
:10137000FFF750FF05F11801074632460020FFF73E
:1013800049FFAB689F4238D1EB68984208BF002400
:1013900033E00369B3F5F01F01D90B24C5E7B0F8BA
:1013A00066208C2A01D00C24BFE71B4E064406F1B0
:1013B0005C02934201D21024B7E75C3B00F1640762
:1013C000324612499D1B0020FFF724FF3946804614
:1013D0002A460020FFF71EFFA368984501D00D2480
:1013E000A3E7E3689842FAD120462B463A463146B5
:1013F000FFF742FF0446002897D1204602B0BDE81F
:10140000F08100BF1C6E000890FF1D000000020864
:10141000256E0008DCFF1D000800FEF78378427887
:101420001B04007843EA02231843704700687047A2
:1014300008B50246FFF7FAFF0346101DFFF7F6FF57
:101440000146184608BD00000B0A017043700B0CE2
:10145000090E8370C170704708B501EB8202031F4B
:1014600008460431FFF7E2FF43F8040F9142F7D139
:1014700008BD000010B500EB82020C1F54F8041FD9
:10148000FFF7E2FF04309042F8D110BD2DE9F041A2
:1014900088460546FFF7CCFF06460C464046FFF758
:1014A000C7FF464005F108004C40FFF7C1FF074663
:1014B0000D4608F10800FFF7BBFF78406940304354
:1014C0002143BDE8F0810000F8B506460F46FFF75E
:1014D000DDFF05460C4606F1100007F11001FFF78D
:1014E000D5FF28432143F8BD2DE9F04F0368B7B07D
:1014F000384CC1F1000A1A93436837491B9383683B
:10150000364D1C93C368364F1D930369DFF8F8B05E
:101510001E9343698AEA0B0B324E1F938369DFF8EF
:10152000ECE02093C369DFF8E8C02193036A2293BB
:10153000436A2393D0E9102362402B4C05922B4A37
:1015400053400693836A2493C36A2593D0E91223F8
:1015500062400D92264A5340264A0E93036B009236
:101560002693436B279381EAEA7320991793836B41
:1015700018912893C36B289A299300F15003119274
:10158000299A21991292269A19910792279A1E99BF
:101590000892249A159103921F99259A1691049204
:1015A000DDE922421C990F911D9910911A99099118
:1015B0001B990A911049CDE9015101F14F7101F5D3
:1015C000D341583113910D4914910D49CDE90B7157
:1015D0000C4F1FE0D182E6ADABD9831F79217E137A
:1015E0002BF894FE85AE67BB1F6C3E2B7F520E51CD
:1015F0008C68059BD072000819CDE05B3AF54FA5C9
:1016000072F36E3C3BA7CA846BBD41FB08C9BCF3B7
:1016100067E6096A0099097803EBC10553F83110B0
:101620006D68611842EB0508099D49190A9D45EB53
:101630000808059D81EA0509069D88EA050A1AEB56
:101640000E0E4CEB090C8EEA04048CEA0202250E05
:1016500045EA0225120E42EA0422009C64780992AF
:1016600003EBC40253F834405268091948EB0208EE
:101670004A190592099A48EB02020692059A82EAF3
:101680000A0A069A4FEA1A4182EA090941EA09421E
:1016900009994FEA1949349249EA0A423592349A33
:1016A0001EEB02022A92359A4CEB02022B922A9AE6
:1016B00055402B9A51400A46490041EAD5716D00C8
:1016C000339145EAD2723292009A927803EBC201CA
:1016D00053F832204968039C0D9DA218049C44EBEA
:1016E000010E0F9912EB010A1099009A41EB0E0EB0
:1016F0000E9985EA0A058EEA0108039918EB070797
:1017000046EB050687EA010C74404FEA1C6141EA8A
:101710000421240E44EA0C2492F803C003EBCC0904
:1017200053F83CC0D9F804901AEB0C024EEB090EAA
:1017300052180D924EEB04020E920D9A82EA08089E
:101740000E9A55404FEA184242EA05422D0C30925B
:1017500045EA08423192309ABA182C92319A46EBF7
:1017600002022D922C9A51402D9A5440620042EA76
:10177000D1724900099241EAD4720492009A127916
:1017800003EBC20153F832204D6807998A18089973
:1017900041EB050515995218169941EB0505179966
:1017A00082EA0B04039285EA010A0B99009A1AEB6C
:1017B00001060C9992F805E041EB040B079953F8E8
:1017C0003E8086EA010C0899039A8BEA01074FEAEA
:1017D0001C6112EB080241EA07214FEA176747EA4A
:1017E0000C2703EBCE0CDCF8049045EB09055218EE
:1017F000159245EB07021692159A82EA0A0A169A82
:101800004FEA1A49544049EA0442240C2E9244EA11
:101810000A42119C2F922E9AB6182F9A4BEB020B6C
:1018200071408BEA07077A0042EAD17249000892B8
:1018300041EAD7720792009A917903EBC10253F8FB
:10184000311052686118129C44EB0208189A8918EA
:10185000199A42EB0808019A029C4A40129F88EAB2
:10186000040E139C1EEB0405149C44EB0209119C0E
:101870006C4089EA070C270E47EA0C274FEA1C6CDC
:101880004CEA042C009CE47903EBC40A53F834407E
:10189000DAF804A00919059C48EB0A08C919179140
:1018A00048EB0C011891179981EA0E0E18994FEA2E
:1018B0001E4A4A404AEA024A120C15EB0A0542EA5D
:1018C0000E4E87EA050749EB0E0989EA0C0C4FEA30
:1018D0004C0848EAD7727F00129247EADC721192F4
:1018E000009A117A03EBC10253F831105268611863
:1018F000069C44EB0208049A8918099A48EB0208EE
:1019000081EA0A0A049A88EA0E0E1EEB06064BEBE1
:101910000A0B86EA0204099A270E8BEA020247EABA
:1019200002274FEA126C009A527A4CEA042C03EB1D
:10193000C20453F832206468891848EB0408CA19B5
:10194000099248EB0C020A92099A8EEA020E0A9A50
:101950008AEA020A4FEA1E4242EA0A424FEA1A4A59
:1019600001924AEA0E420292019A92190B92029A4D
:1019700042EB0B020C920B9A57400C9A8CEA020C29
:101980004FEA4C0444EAD772359C7F00049247EA40
:10199000DC720392009A927A03EBC20153F8322070
:1019A0004E680D998A180E9941EB0606079912EBBD
:1019B00001080899009A46EB0106349986EA040A60
:1019C00088EA0101079C1AEB050549EB010985EA44
:1019D000040C089C89EA04074FEA1C6444EA0724C3
:1019E0003F0E47EA0C2792F80BC003EBCC0E53F8DE
:1019F0003CC0DEF804E018EB0C0246EB0E061219B0
:101A00000F9246EB070210920F9A8AEA020A109A86
:101A100051404FEA1A4242EA0142090C059241EA5A
:101A20000A420692059A52191392069A42EB09024B
:101A30001492139A5440149A57407A0042EAD4728E
:101A40006400089244EAD7720792009A127B03EB73
:101A5000C20153F832204D6815998A18169941EB46
:101A60000505119912EB010A1299009A45EB01053F
:101A700030998AEA0106319985EA01072A9911EB22
:101A8000070E2B9941EB060C11998EEA010412996D
:101A90008CEA0108210E41EA08214FEA186848EA59
:101AA000042492F80D8003EBC80953F83880D9F864
:101AB00004901AEB080245EB09055218159245EB04
:101AC00004021692159A5740169A56403A0C42EA6A
:101AD0000642360C0D9246EA07420E920D9A12EB20
:101AE0000E0E0E9A42EB0C0C81EA0E0184EA0C04F5
:101AF0004FEA440A4AEAD1724900129241EAD4728A
:101B0000179C1192009A917B03EBC10253F831109C
:101B100052686118189C44EB0208329A009C89189C
:101B2000339AE47B48EB02082E9A81EA02092F9A45
:101B300088EA020A2C9A12EB0A072D9A42EB090650
:101B4000329A87EA020B339A4FEA1B65724045EAE4
:101B50000225120E42EA0B2203EBC40B53F8344069
:101B6000DBF804B0091948EB0B084919189148EB48
:101B70000201199118998AEA010A199989EA010959
:101B80004FEA1A4141EA094B4FEA19491BEB070793
:101B900049EA0A4185EA070541EB0606179182EA00
:101BA00006014A0042EAD5726D0045EAD1740099F7
:101BB00010310091009D3949A9427FF42BAD099B5A
:101BC0000C9D83EA0E010A9B83EA0C081A9B59407C
:101BD0001B9B88EA0303C0E900130F9B13997B400A
:101BE0001F46109B73401E461C9B5F401D9B5E4022
:101BF000159BC0E902760B9E5E40169B5D401E9BC6
:101C00005E401F9B5D40189BC0E904655940199DCB
:101C1000149B83EA0508209B5940219B88EA030313
:101C2000C0E90613059B83EA0409069B83EA020ABE
:101C3000229B89EA0304239B8AEA0302C0E9084243
:101C4000039B0D9A049C83EA020C0E9B259A5C4030
:101C5000249B12998CEA03035440179AC0E90A3472
:101C6000079B83EA0B04089B83EA020A269B5C40DD
:101C7000279B8AEA0302119BC0E90C42019A5A4051
:101C8000029B83EA010A289B5A40299B8AEA0303A4
:101C9000C0E90E2337B0BDE8F08F00BF9073000895
:101CA00070B505460E46144622B9802221465030B2
:101CB000FFF79AF924F00700E40004F03804284400
:101CC000A4F12003C4F1200206FA04F406FA03F397
:101CD00026FA02F21343D0E9146234431343C0E9F5
:101CE000144370BD28220021FFF77EB9012324226E
:101CF000002140F8043BFFF777B90000002351F8BA
:101D0000232040F8232001330A2BF8D1704700002C
:101D1000002351F82320524240F8232001330A2B9C
:101D2000F7D17047002330B551F8234052F82350C3
:101D30002C4440F8234001330A2BF5D130BD00007C
:101D4000002330B551F8234052F82350641B40F86B
:101D5000234001330A2BF5D130BD000030B552428B
:101D6000041F0439243054F8045F51F8043F8442BE
:101D700083EA050303EA020383EA05032360F2D141
:101D800030BD00002DE9F04F8BB004460846002519
:101D9000FFF74CFB0190081DFFF740FB8301C81DB6
:101DA0000093FFF73BFB4FEA401A01F10A00FFF7EF
:101DB00035FB4FEAC00B01F10D00FFF72FFB86004A
:101DC00001F11000FFF732FB814601F11400FFF72B
:101DD00025FB4FEAC01801F11700FFF71FFB470171
:101DE00001F11A00FFF71AFB030101F11D00049332
:101DF000FFF714FB019A6C4B03EA800312F10070A9
:101E000005934FEA906045F1000340EA83109B166A
:101E100081064FEA901C521A06926CEB4C02079214
:101E2000009A101843F1000216F1007C45F1000100
:101E30004FEA9C6C4CEA811C89164FEA8C634FEA8E
:101E40009C15F31A65EB450619EB0C0941F10001ED
:101E500010F1807C42F100054FEA5C6C4CEAC51C35
:101E60006D161AEB0C0AA0EB4C6245F1000519F156
:101E7000807008924FEA506041F1000240EAC210BF
:101E80005216A9EB4061099118EB0001009142F153
:101E900000021AF1007145F10005890E41EA851131
:101EA000AD161BEB01004FF0130B019045F100053F
:101EB000009810F1007042F10002800E40EA82109A
:101EC00092163F18029742F10002019F17F1807E9F
:101ED00045F100054FEA5E6E4EEAC51E029D13EB0A
:101EE0000E0346F1000615F18077049D42F10002D1
:101EF0007F0E039347EAC2175216ED1942F1000212
:101F000013F1007C049546F100064FEA9C6C069B99
:101F10004CEA861C15F10076059D42F10002B60ED2
:101F200046EA8216921615EB060942F1000219F1F3
:101F3000807542F100026D0E45EAC215A5FB0B2B20
:101F4000A9EB4565D218079B4BEB030B12F1007808
:101F5000089B4BF1000B4FEA986848EA8B18A2EBFC
:101F60008862226013EB08026260AAEB8162A260C1
:101F7000019B6562A3EB4E61039BA3EB8C63E16065
:101F80002361099B13EB0C036361009BA3EB80634C
:101F9000A361029BA3EB4760049BA3EB8666E06111
:101FA00026620BB0BDE8F08FFCFFFF012DE9F04F7A
:101FB0000D688BB00C694FF0130B82FB055C82FB44
:101FC000044615F100774CF1000ABF0E47EA8A1764
:101FD0004FEAAA680AF07C4ABB064AEA971AEB1A4B
:101FE0004D6806936CEB0A0314F1007CC2FB057884
:101FF000079346F1000E4FEA9C6C4D694CEA8E1C2B
:102000004FEAAE6A0EF07C4E4FEA8C634EEA9C1E9D
:10201000C2FB05CAE41A66EB0E0E17F1807548F193
:1020200000086D0E45EAC8154FEA6863A7EB4566E0
:102030008F6808961CF18076C2FB07534AF1000AAC
:10204000760E15F1007946EACA1643F100034FEA0D
:102050009969ACEB466749EA831909974FEA6A6ABE
:102060008F699B16A5EB8965C2FB076ACF6801964D
:102070004E46C2FB07630296019ECF6916F1007CB3
:102080004AF1000A4FEA9C6C4CEA8A1C4FEAAA6AA1
:102090006646C2FB076A0396029E16F1807843F1FA
:1020A00000034FEA586848EAC31814EB08044EEBE3
:1020B0006366039B13F180770B6A496A4AF1000A51
:1020C0007F0E856047EACA174FEA6A6ABE46C2FBBE
:1020D00003EACDF810E014F1007E46F100034FEA68
:1020E0009E6E4EEA831E049B13F10076A4EB8E6471
:1020F0004AF10003B60E46EA83169B16B246C2FBAF
:1021000001A31AF18071CDF814A043F10003490E28
:1021100041EAC3115B16A1FB0B2A0BFB03AA069B2A
:10212000D218079B4AEB030A12F100734AF1000A26
:102130009B0E43EA8A13A2EB83620260089AD318CB
:102140004360029BA3EB4863C3600461099B13EBEC
:102150000E034361019BA3EB8C638361039BA3EBA1
:102160004767049BA3EB8666059BC761A3EB4161B0
:10217000066241620BB0BDE8F08F00002DE9F04F20
:10218000A5B04FF0130E8146D1E90053D2E9008487
:1021900008938B680EFB04F00193CB680993D1E997
:1021A00004C30A93D1E906730B93D1E908630C9336
:1021B00093680293D36804931369069353690D934C
:1021C00093690F93D3691693136A1893536A1993FB
:1021D000089B5B001093099B5B0011930A9B5B00BB
:1021E00012930B9B5B0013930C9B5B001493029B5D
:1021F0000EFB03F31A93049B0EFB03FB069B0EFBE3
:1022000003F317930D9B0EFB03F315930F9B0EFB2C
:1022100003F30E93169B0EFB03F30793189B0EFB21
:1022200003F30593199B0EFB03F30393039A109B8F
:1022300083FB021A019B1A46059BC5FB081AC2FBC9
:10224000031A119B1A46079BC2FB031A0E9BCCFB79
:10225000031A129B1A46159BC2FB031A179B039A7B
:10226000C7FB031A139BC3FB0B1A1A9BC6FB031A6B
:10227000149BC3FB001A089B1B9188FB0330019938
:10228000C5FB0430C2FB013005990A460999C2FB1F
:1022900001300799C1FB0C300E990A460A99C2FB1E
:1022A00001301599C1FB073017990A460B99C2FBFB
:1022B00001301A99CBFB063002460C98C1FB003264
:1022C0001A93109B029983FB04301C92C5FB0130CA
:1022D0000199039AC8FB01301199C2FB013005999D
:1022E000C1FB0C3007990A461299C2FB01300E99C6
:1022F000C1FB073015990A461399C2FB01301799A3
:10230000C1FB06301499CBFB01300299CDE91D3099
:10231000089B83FB01B0049B0A99C5FB03B0019B9A
:10232000C3FB04B0099BC8FB03B0039BC3FB0CB009
:10233000059BC3FB01B0079B0B99C3FB07B00E9B2A
:10234000C3FB01B017990C9BC2FB06B0C1FB03B0E5
:10235000109B0499209083FB01310698CDF87CB046
:10236000C5FB0031019802460298C2FB003111986A
:10237000039AC0FB04311298C8FB0C31C2FB003138
:102380000598C0FB0731079802461398C2FB00313D
:102390000E98C0FB0631159802461498C2FB003116
:1023A00006981593089B0D9A83FB00031791C5FBB4
:1023B0000203019A9346049ACBFB0203099A9346BF
:1023C000029ACBFB02030A9ACCFB0403C8FB02036C
:1023D000039AC2FB0703059A93460B9ACBFB0203B1
:1023E000079AC2FB06030E9A93460C9ACBFB020394
:1023F0000D9A2193109B0E9083FB02030F9AC5FB4D
:102400000203019A9346069ACBFB0203119A934664
:10241000049ACBFB0203029ACCFB0203129AC2FB82
:102420000403139A0399C8FB0703C1FB0203059A2F
:10243000C2FB0603079A9346149ACBFB02030F9A3A
:102440002293089B079083FB0203169AC5FB0203A5
:10245000019A93460D9ACBFB0203099A9346069A7A
:10246000CBFB0203049ACCFB02030A9A9346029A1E
:10247000CBFB02030B9AC7FB0403C8FB0203059ABC
:10248000C1FB060393460C9ACBFB0203169A2393D7
:10249000109B059083FB0203189AC5FB0203019A67
:1024A00093460F9ACBFB0203119A93460D9ACBFBEE
:1024B0000203069ACCFB0203129A9346049ACBFBC2
:1024C0000203029AC7FB0203139AC2FB0403149A85
:1024D000C8FB0603C1FB0203189A1193089B1090D6
:1024E00083FB023219981799C5FB003201981546F3
:1024F000169AC0FB0235099A0F98C2FB00350D9A57
:102500000698CCFB02350A9AC2FB0035049A029861
:10251000C7FB02350B9A159FC2FB00350C98C6FB12
:1025200004352A461B9CC8FB003206931B9B08926D
:1025300013F100764AF10000B60E46EA801600F06C
:102540007C43B20643EA9613A21A6AEB030309928C
:102550000A931A9B9E191C9B43EBA060159B13F1D9
:102560000075179B4FEA956543F1000345EA831513
:1025700003F07C44AA0644EA9514BA1A61EB0401FC
:102580000E9C6519219C44EBA36316F1807440F105
:102590000000640E44EAC014A6EB44660B961D9E30
:1025A000341901941E9C44EB606015F1807443F172
:1025B0000003640E44EAC314A5EB44650C95079D23
:1025C0002C190294229C44EB6363019C14F1007467
:1025D00040F100004FEA94681F9C48EA801814EB11
:1025E000080B209C44EBA060029C14F10076059C33
:1025F00043F10003B60E46EA831614EB060A239C49
:1026000044EBA3631BF1807C40F100004FEA5C6C5B
:102610004CEAC01C12EB0C0241EB60611AF18075B0
:10262000109843F100036D0E039245EAC31540195B
:10263000AAEB45650490119840EB636312F10077B3
:1026400041F10001BF0E47EA8117049911F10074AE
:10265000069943F10003A40E44EA83140919059175
:10266000089941EBA363059911F1807043F10003D0
:10267000400E40EAC3105B16A0FB0E120EFB0323B4
:10268000099A89180A9A43EB020311F1007E43F17B
:1026900000034FEA9E6E4EEA831E0B9B13EB0E0364
:1026A000A1EB8E61C9F80430019BC9F80010A3EBBF
:1026B0008863C9F80830ABEB4C63C9F80C30039B56
:1026C000A3EB8762C9F810200C9BC9F81C50DF19D6
:1026D000029BA3EB8666049BC9F81470A3EB846489
:1026E000059BC9F81860A3EB4060C9F82040C9F801
:1026F000240025B0BDE8F08F2DE9F04F95B082465B
:102700004FF02608D1E90262D1E9003008924FEA81
:10271000400B4FEA430ED1E904720392D1E906520D
:1027200004920A6A05924A6A13210992720006927B
:10273000089A52000192039A52000292049A52009F
:102740000A9201FB05F20B92049A08FB02F207922F
:10275000059A01FB02F9099A039908FB02F208FBAA
:1027600001F88BFB021CC3FB031C7300C3FB091C99
:10277000019B1C46079BC4FB031C0B9C7B00C3FBFB
:10278000041C039BC3FB081C82FB06380C910199B7
:10279000CEFB0038C9FB01380799C1FB0738029905
:1027A0000C460B99C1FB04380D938BFB003101984B
:1027B000CEFB0631C2FB00317800C9FB003107981F
:1027C00004460298C4FB00310B98C0FB0531089801
:1027D0000E910B938BFB0631CEFB00310298C2FBAE
:1027E0000731C9FB0031C4FB0531CDE90F31019B35
:1027F000680002998BFB0334CEFB0734C6FB06341A
:10280000C2FB01340799C9FB00340498C1FB0034B2
:102810008BFB07160793039B0898C3FB0E16069BBA
:10282000C3FB00160A98C2FB05160B463146C9FBCE
:102830000031CDE91131029B8BFB0310069BCEFBCF
:102840000510C3FB0710019B1E46089BC6FB031027
:102850000A9BC2FB0310059B0E46C9FB03608BFB62
:1028600005130896049ECEFB0613069EB146039EF2
:10287000C9FB0613019EC6FB0713059E89460699F0
:10288000C2FB069313930A9BCDF80C908BFB03932A
:10289000CEFB0693C1FB0593DDE90116C1FB069350
:1028A0000999C7FB0793C2FB01930A93059B0E4648
:1028B0008BFB0312069BCEFB0612049EC3FB061283
:1028C000019BC3FB0512029D0E461346C7FB056321
:1028D00006930C9B0C9D13F1007E05964CF10001B4
:1028E0004FEA9E6E4EEA811E01F07C434FEA8E62F3
:1028F00043EA9E13AD1A6CEB03030995079D0C93F5
:102900000D9B13EB0E0E079B48EBA16813F1007CA7
:1029100044F100034FEA9C6C4CEA831C03F07C41B9
:102920004FEA8C6241EA9C11AA1A64EB01041199E6
:1029300011EB0C0C129941EBA3631EF1807648F168
:102940000001760E46EAC116AEEB466507950B9D73
:10295000AD1901950E9D45EB61611CF1807E43F13F
:1029600000064FEA5E6343EAC613ACEB43650B9582
:10297000089DEB18029340EB6663019810F1007616
:102980000F9841F100014FEA966848EA811810EB70
:10299000080B109840EBA161029810F1007643F10A
:1029A0000000B60E039B46EA80169B190393139B07
:1029B00043EBA0631BF1807C41F100004FEA5C6CAB
:1029C0004CEAC01C12EB0C0244EB606103980492C9
:1029D00010F180750A9843F100036D0E45EAC315A6
:1029E00019EB050940EB636312F100774FF0130216
:1029F00041F1000119F100744FEA976743F10003B8
:102A0000A40E47EA8117059944EA83140919A9EB32
:102A100084640591069941EBA363059911F18070D7
:102A200043F10003400E40EAC3105B16A0FB021EF8
:102A300002FB03E3099A89180C9A43EB020311F194
:102A4000007E43F100034FEA9E6E4EEA831E079B11
:102A500013EB0E03A1EB8E61CAF80430019BCAF898
:102A60000010A3EB8863CAF80830ABEB4C63CAF8DC
:102A70000C30049BA3EB87620B9BDF19CAF8102074
:102A8000CAF81470029BCAF82040A3EB8666039B29
:102A9000A3EB4565059BCAF81860A3EB4060CAF834
:102AA0001C50CAF8240015B0BDE8F08F0029A1BF62
:102AB000CB1001F00701C05C40FA01F1ACBF01F09E
:102AC000010000207047000070B500F11C02041FD7
:102AD000084E0120002556F8041B54F8043FC94352
:102AE0005B1845EB05011B1841F10000A242F2D131
:102AF00070BD00BF386E0008F8B5002406460846D1
:102B00000D46FFF7E1FFDFF834C00246C117C0F100
:102B1000000E20465CF8043B55F824702EEA0303AF
:102B2000DB1940EB00079B1846F8243004F1010440
:102B300041EB07020021082CECD1F8BD386E0008EB
:102B400010B50446FFF7CEF804F12800FFF7CEF8E1
:102B500004F15000FFF7CAF804F17800BDE8104016
:102B6000FFF7C0B838B50A4605460C462831FFF7CE
:102B7000D9F82830FFF7E4F804F1500105F15000CE
:102B8000FFF7BCF804F1780105F17800024ABDE8CE
:102B90003840FFF7F3BA00BF806E00082DE9F0431C
:102BA00095B0044616460D460A466846283104F19B
:102BB0002808FFF7B7F80AA8FFF7C2F832466946B7
:102BC0006846FFF7DBFA0AA906F1280204F150076C
:102BD000084604F17809FFF7D1FA0AAA6946404687
:102BE000FFF7A0F82046FFF7ABF805F15002384692
:102BF0001146FFF797F806F150023946FFF7BEFA83
:102C000006F1780205F178014846FFF7B7FA4A461F
:102C100039466846FFF786F80AA8FFF791F842465A
:102C200021464846FFF7AAFA0AAA21462046FFF79E
:102C3000A5FA6A4641464046FFF7A0FA0AAA694645
:102C40003846FFF79BFA15B0BDE8F0832DE9F84F41
:102C50000A9E1C460546904618460F460A462831ED
:102C6000FFF760F8304605F1280AFFF769F8424699
:102C70002146204605F15009FFF780FA08F12802A5
:102C800031463046FFF77AFA324621465046FFF782
:102C900049F82846FFF754F807F1500205F1780B80
:102CA00048461146FFF73EF808F1500207F1780157
:102CB0005846FFF763FA5A4649462046FFF732F86E
:102CC0003046FFF73DF8524629465846FFF756FA78
:102CD000324629462846FFF751FA224651465046C9
:102CE000FFF74CFA324621464846BDE8F84FFFF759
:102CF00045BA00002DE9F0471446894607461046BC
:102D000004F1280809F1280A04F15005FFF7F4FC42
:102D100051464046FFF7F0FC09F15001284604F106
:102D20007806FFF7E9FC294628460222FFF73EF91C
:102D3000494607F1780952463046FEF7F3FF31461F
:102D40004846FFF7D9FC224641463046FEF7EAFFE7
:102D50004046FEF7F5FF324649462046FEF7F0FFB3
:102D6000424629462846FEF7EBFF2A4621463846CA
:102D7000FFF704FA4246314607F12800FFF7FEF953
:102D80002A46414607F15000FFF7F8F9324621463E
:102D90004846BDE8F047FFF7F1B9000038B5FC221E
:102DA00004460D4611462846FFF780FE08B9013A51
:102DB000F8D14FF6FF7301322380E270A37038BD63
:102DC0002DE9F84F9846C37805460E4693420CD13C
:102DD00011464046571EFFF769FE044640463946F5
:102DE000FFF764FE844209D1EF70B5F900309342D9
:102DF0000CBF95F902000020BDE8F88F511C4FF080
:102E000000098E42A8BF0E4606F1FF3A971B04FA4E
:102E10000AF4BB466442CA450BF1010B09DD594671
:102E20004046FFF743FE00FA09F009F101090444A6
:102E3000F1E739464046FFF739FE04446342234038
:102E400013F0AA0F14BF0120002013F0CC0118BF0B
:102E5000022113F0F00340EA010018BF0423511CC3
:102E600003438E1B1E4444FA03F32E80AB70BBE772
:102E7000D0E9103210B5D0F8D04000211B1952F122
:102E8000000228BF0121C0E9103231B1D0E912326D
:102E9000013342F10002C0E9123210BD70B50D4697
:102EA000A0F1080600F1780428460835FEF7C0FABC
:102EB000E6E90201A642F7D170BD0000F8B504466C
:102EC0000D468E180027B54218D0D4F8D030802B8C
:102ED00007D12046FFF7CCFF0021FEF705FBC4F821
:102EE000D070D4F8D020204615F8011BFEF7D8FE8C
:102EF000D4F8D0300133C4F8D030E4E7F8BD000096
:102F000008B5FEF7E1FA0843B0FA80F0400901384D
:102F100008BD000000231A468B4202D0C254013380
:102F2000FAE7704770B59EB005460C460426684621
:102F3000FFF7E2FB69460AA8FFF7DEFB0AA908468D
:102F4000FFF7DAFB0AAA21461046FFF717F90AAA8B
:102F500069466846FFF712F969466846FFF7CCFBF9
:102F60006A460AA96846FFF709F969460AA8FFF701
:102F7000C3FB0AA90846FFF7BFFB013EF9D16A4629
:102F80000AA968460926FFF7F9F869460AA8FFF773
:102F9000B3FB0AA90846FFF7AFFB013EF9D10AA926
:102FA0006A4613260846FFF7E9F80AA914A8FFF7AE
:102FB000A3FB14A90846FFF79FFB013EF9D10AAA1B
:102FC00014A909261046FFF7D9F80AA90846FFF701
:102FD00093FB0AA90846FFF78FFB013EF9D16A4629
:102FE0000AA968463126FFF7C9F869460AA8FFF71B
:102FF00083FB0AA90846FFF77FFB013EF9D10AA926
:103000006A4663260846FFF7B9F80AA914A8FFF72D
:1030100073FB14A90846FFF76FFB013EF9D10AAA1A
:1030200014A931261046FFF7A9F80AA90846FFF7A8
:1030300063FB0AA90846FFF75FFB013EF9D16A4628
:103040000AA96846FFF79AF869466846FFF754FBF5
:1030500069466846FFF750FB224669462846FFF757
:103060008DF828216846FFF755FF0DEB0100FFF7AB
:1030700051FF14A8FFF74EFF1EB070BD10B58CB005
:10308000044602A80191FFF74DFF02A90846FFF789
:1030900033FB02A90846FFF72FFB02A9019A084655
:1030A000FFF76CF802A90846FFF726FB019A02A970
:1030B0002046FFF763F8282102A8FFF72BFF0CB08A
:1030C00010BD000070B58AB002460B4601F128061B
:1030D0006D461868083353F8041C2C46B34203C4E9
:1030E0002546F6D11321099B684600244B436946C7
:1030F00003F180735B160568013408302B4450F8E7
:10310000045C052C05EBA3634FEA6363F3D1132042
:10311000002443430868013408310344052C23F09C
:103120007C4041F8080C51F8040C00EBA3604FEA16
:10313000606320F07E4041F8040CEBD11046DDE9DD
:10314000003143EA8161FEF77FF90299019B101D6E
:10315000C90441EA9311FEF777F90399029B02F142
:103160000800490341EA5331FEF76EF90499039BC5
:1031700002F10C00890141EAD341FEF765F902F141
:103180001000DDE9053143EA4161FEF75DF9079979
:10319000069B02F11400C90441EAD311FEF754F969
:1031A0000899079B02F11800090341EA5331FEF721
:1031B0004BF90999089B02F11C00890141EA13515E
:1031C000FEF742F928216846FFF7A4FE0AB070BD59
:1031D0002DE9F04F2DED028B9DB00C4664220021AD
:1031E00008EE100A03A8FDF7FFFE0DF10C080022FF
:1031F000DFF8E0E0414604F13C099246CDF800805A
:103200005EF8043B251F8C4600269846284650F859
:10321000047FD346DCF800300197019FE8FB073BB1
:103220009B194BF1000681454CF8043BEFD101326C
:103230000E640431092AE3D10021202203A8FDF7FE
:10324000D3FE002103AB8E461A6C0020DFF888A065
:103250009C4690460646C1F108095AF8047BF3469D
:10326000DCF8002001300197019FE8FB072B921941
:103270004BF1000648454CF8042BEED301310433E2
:103280000829E1D11C3401210020009B1A6855F85F
:10329000043FD2439B1840EB00025B18009941F8B1
:1032A000043B009142F10001A542EED103A908467A
:1032B000FFF722FC082203A918EE100AFEF7DAF83D
:1032C000642103A8FFF726FE1DB0BDEC028BBDE80C
:1032D000F08F00BF90730008386E000810B588B0FA
:1032E00001466846FFF7EEFE9DF800406846202143
:1032F00004F00104FFF70EFE204608B010BD0000E8
:1033000030B59FB00D46044650316846FFF7B6FE13
:103310006A4629460AA8FEF731FF6A4605F12801E8
:1033200014A8FEF72BFF14A92046FFF7CBFE0AA82E
:10333000FFF7D4FFE37F282183EAC010E0776846D7
:10334000FFF7E8FD0DEB0100FFF7E4FD14A8FFF720
:10335000E1FD1FB030BD000010B590B00446102252
:1033600001466846FEF778F869462046FFF730FFC9
:1033700040216846FFF7CEFD10B010BD10B590B0EB
:103380000C4601466846FFF79DFE214608A8FFF758
:1033900099FE08A96846FFF7B3FD20210446684658
:1033A000FFF7B8FD0DEB0100FFF7B4FD601C10B096
:1033B00010BD0000F0B595B004466846FEF79EFCCF
:1033C00069462046FFF7AEFD21460AA8FFF794F9AB
:1033D0000AA96A460846FEF7D1FE6846FEF786FC53
:1033E00069460AA8FFF7CAFF694606466846FEF71F
:1033F0008FFC0AA8FFF7C2FF104A0546684611462F
:10340000FEF786FC69460AA8FFF7B8FF0746214683
:1034100068460A4AFEF7B2FE45EA070269462046B8
:10342000FEF79CFC28210DEB0100FFF773FD6846B9
:10343000FFF770FD46EA050015B0F0BDE86E000824
:10344000DFF880C02DE9F0419046A0B004460E465A
:103450001D4600F108070CF138026346083703CB1C
:10346000934247F8080C47F8041C9C46F5D186EABD
:103470000522124B0021534000222360104B636051
:103480000023C4E93416C4E91023C4E912238DB122
:103490007C2201A80091FDF7A7FD2A464146684617
:1034A000FDF77CFD694604F15000FFF7F7FC80232F
:1034B000C4F8D03020B0BDE8F08100BF08C9BDF22B
:1034C00067E6096AB06E0008002340211A46FFF73C
:1034D000B7BF00008830FFF7F7BF00002DE9F047C5
:1034E00004460D4617469AB3D0F8D0604FF0000A54
:1034F00004F150094FF08008764206F07F069642AC
:1035000028BF164632463544BE1BFFF7D7FC26F0CF
:103510007F072F44AF4213D0D4F8D030802B07D18F
:103520002046FFF7A5FC0021FDF7DEFFC4F8D0A080
:1035300029464846FFF7B2FC8035C4F8D080E9E759
:1035400006F07F0239462046BDE8F047FFF7B6BCDB
:10355000BDE8F0878830FFF7C1BF00002DE9F843D0
:1035600004460D46D0F8D0607F2E06D832460021A2
:1035700020460136FEF794FBF6E72046A4F1080743
:10358000FFF776FC0121FDF7AFFFD4F8D4202E46DB
:1035900022F00708A84446450CD057F8081F3046CB
:1035A000D7F80490FDF750FF301D08364946FDF767
:1035B0004BFFF0E722F00703D4F8D4209A4217D942
:1035C00003F0070223F00700DE08D100204454F87E
:1035D00036204768C1F12006A1F12000CA4007FA51
:1035E00006F627FA00F032430243EA540133E3E7D8
:1035F0002046D821BDE8F843FFF78CBC8830FFF7A0
:10360000ADBF000010B5B6B004466846FFF718FF1E
:103610006846DDE93812FFF761FF21466846FFF78B
:103620009DFF36B010BD0000002307B5CDE90012A4
:103630001A464021FFF7E6FF03B05DF804FB0000E7
:1036400003689B68184700002DE9F0410E460446C8
:1036500015460139024606F13F0042F8043B11F8D5
:10366000017F814202F8017BF9D16A1E04F16401F5
:1036700005F11F0012F8017F824201F8017BF9D1A8
:1036800020465B6898472368314620469B68202285
:1036900098472368294620469B682022BDE8F041D0
:1036A00018470000014BFFF7CFBF00BFB4730008FD
:1036B000FFF7C6BF2DE9F04F8046ADF56F7D05469B
:1036C00058F8043B16A905F1240A05F16409DB68E2
:1036D00026AC984716A8FFF73FFE0822514604A8DB
:1036E000FDF7BAFE494630A8FEF74CFB3AA8FEF7B4
:1036F000FDFA30A944A8FEF7FFFF864A44A92046F8
:10370000FEF73CFD44A93AAA0846FEF719FB2046FD
:103710002146FEF707FB44A92246FEF72FFD21466E
:103720002046FFF747FE28B94FF0FF300DF56F7DBB
:10373000BDE8F08F224644A92046FEF71FFD204633
:10374000FFF7CCFD95F88330B0EBD31F03D02146B3
:103750002046FEF7DDFA44A830AA2146FEF70EFD0A
:1037600004A8FFF7B1F90028DED121462046FEF774
:10377000CFFA44A94EAF0846FEF7CAFA76AA214608
:103780003846FFF7B7FA21469EA8FFF7EBF99EAA45
:10379000394676A8FFF702FA76A9C6A8FFF7E2F93C
:1037A00016A902A8FFF7FAFA03A85146FFF7F6FA9E
:1037B0009DF80B609DF80F3020469E4238BF1E4694
:1037C000FFF7BEF93A4621462046FFF793FA16ABBB
:1037D0003246032102A8FFF7F3FA054653460521B6
:1037E00003A8FFF7EDFA002D834623DD6D10A0221C
:1037F0009EAB02FB053221462046FFF7CFF9BBF115
:10380000000F3ADD76AB44494FEA6B0B7822009308
:10381000204602FB0B120CAB2146FFF717FA013EC4
:10382000D0D226A94846FFF76BFD49464046FFF730
:1038300067FB7BE7E3D005EBD5756FF09F019EAB8F
:1038400080A86D104D435919FEF758FA9EAB05F14B
:10385000280176A81944FEF751FA9EAB05F15001F4
:103860008AA81944FEF74AFA9EAB05F1780194A89C
:103870001944FEF74DFA76AABDE7D0D00BEBDB7307
:10388000254A6FF0770530A95B100CA803FB0525CE
:103890002246FEF747FA76A8FEF752FA0CA905F180
:1038A00028020846FEF76AFC76A92A460846FEF773
:1038B00065FC76AA0CA930A8FEF734FA2046FEF77C
:1038C0003FFA3AAA11461046FEF72CFA44A905F130
:1038D00050020846FEF752FC44AA3AA90CA8FEF78B
:1038E0002FFA76A8FEF71EFA30AA214644A8FEF762
:1038F00045FC76AA21462046FEF740FC30A90CAADA
:103900000846FEF73BFC76AA0CA93AA8FEF736FC5F
:1039100085E700BF586E0008106F00080268436812
:103920001143016003B1184770470000024A136851
:1039300043F0C0031360704700440040024A13681C
:1039400043F0C0031360704700480040024A136808
:1039500043F0C003136070470078004037B5274C30
:10396000274D204600F0F2FA04F1140000940023E1
:103970004FF40072234900F0B3F94FF4007222496A
:1039800004F138000094214B00F02CFA204BC4E9DC
:103990001735204C204600F0D9FA04F114000094A9
:1039A00000234FF400721C4900F09AF94FF40072A2
:1039B0001A4904F138000094194B00F013FA194B1E
:1039C000C4E91735184C204600F0C0FA04F1140081
:1039D00000234FF400721549009400F081F9144B54
:1039E0004FF40072134904F13800009400F0FAF922
:1039F000114BC4E9173503B030BD00BFCC23002004
:103A000000E1F50510250020102B00202D390008BD
:103A1000004400403824002010270020102D0020F2
:103A20003D39000800480040A4240020102900204F
:103A30004D390008102F002000780040037C30B57D
:103A4000334C002918BF0C46012B18D1314B98423A
:103A50000FD1314BD3F8E82042F40032C3F8E8200C
:103A6000D3F8102142F40032C3F81021D3F81031FA
:103A700005E02A4B98422FD0294B984238D0226833
:103A8000036EC16D03EB52038466B3FBF2F362680D
:103A9000150442BF23F0070503F0070343EA45037B
:103AA000CB60A36843F040034B60E36843F001033D
:103AB0008B6042F4967343F001030B604FF0FF33C9
:103AC0000B62510505D512F010221DD0B2F1805FB6
:103AD0001CD080F8643030BD0F4BD3F8E82042F49E
:103AE0008022C3F8E820D3F8102142F48022BBE7FB
:103AF000094BD3F8E82042F08042C3F8E820D3F81D
:103B0000102142F08042AFE77F23E2E73F23E0E766
:103B1000C8730008CC230020004402583824002039
:103B2000A42400202DE9F047C66D05463768F469E6
:103B30002107346219D014F0080118BF8021E20770
:103B400048BF41F02001A3074FF0200348BF41F0D8
:103B50004001600748BF41F4807183F31188281D3C
:103B6000FFF7DCFE002383F31188E2050AD520234A
:103B700083F311884FF40071281DFFF7CFFE002357
:103B800083F311884FF020094FF0000A14F0200849
:103B900038D13B0616D54FF0200905F1380A20062A
:103BA00010D589F31188504600F050F9002836DA14
:103BB0000821281DFFF7B2FE27F0800333600023A1
:103BC00083F31188790614D5620612D5202383F376
:103BD0001188D5E913239A4208D12B6C33B127F011
:103BE00040071021281DFFF799FE3760002383F35B
:103BF0001188E30618D5AA6E1369ABB15069BDE808
:103C0000F047184789F31188736A284695F86410BD
:103C1000194000F0B5F98AF31188F469B6E7B0628B
:103C200088F31188F469BAE7BDE8F087F8B515465E
:103C3000826804460B46AA4200D28568A1692669BB
:103C4000761AB5420BD218462A46FDF7A7F9A369A2
:103C50002B44A3612846A3685B1BA360F8BD0CD965
:103C6000AF1B18463246FDF799F93A46E1683044F1
:103C7000FDF794F9E3683B44EBE718462A46FDF765
:103C80008DF9E368E5E7000083689342F7B50446E1
:103C9000154600D28568D4E90460361AB5420BD2C5
:103CA0002A46FDF77BF963692B4463612846A368C4
:103CB0005B1BA36003B0F0BD0DD93246AF1B019171
:103CC000FDF76CF901993A46E0683144FDF766F971
:103CD000E3683B44E9E72A46FDF760F9E368E4E777
:103CE00010B50A440024C361029B8460C160026174
:103CF0000362C0E90000C0E9051110BD08B5D0E9B4
:103D00000532934201D1826882B9826801328260B1
:103D10005A1C426119700021D0E904329A4224BF32
:103D2000C368436100F0B4FF002008BD4FF0FF30CE
:103D3000FBE7000070B5202304460E4683F311888C
:103D4000A568A5B1A368A269013BA360531CA36148
:103D500015782269934224BFE368A361E3690BB13C
:103D600020469847002383F31188284607E0314610
:103D7000204600F07DFF0028E2DA85F3118870BD4F
:103D80002DE9F74F04460E4617469846D0F81C908A
:103D90004FF0200A8AF311884FF0000B154665B1E9
:103DA0002A4631462046FFF741FF034660B94146A7
:103DB000204600F05DFF0028F1D0002383F3118836
:103DC000781B03B0BDE8F08FB9F1000F03D001906C
:103DD0002046C847019B8BF31188ED1A1E448AF3D5
:103DE0001188DCE7C160C361009B82600362C0E9A7
:103DF00005111144C0E9000001617047F8B504469F
:103E00000D461646202383F31188A768A7B1A3683F
:103E1000013BA36063695A1C62611D70D4E90432DE
:103E20009A4224BFE3686361E3690BB12046984777
:103E3000002080F3118807E03146204600F018FF8B
:103E40000028E2DA87F31188F8BD0000D0E90523E5
:103E500010B59A4201D182687AB982680021013294
:103E600082605A1C82611C7803699A4224BFC3682D
:103E7000836100F00DFF204610BD4FF0FF30FBE7DF
:103E80002DE9F74F04460E4617469846D0F81C9089
:103E90004FF0200A8AF311884FF0000B154665B1E8
:103EA0002A4631462046FFF7EFFE034660B94146F9
:103EB000204600F0DDFE0028F1D0002383F31188B6
:103EC000781B03B0BDE8F08FB9F1000F03D001906B
:103ED0002046C847019B8BF31188ED1A1E448AF3D4
:103EE0001188DCE7026843681143016003B1184799
:103EF000704700001430FFF743BF00004FF0FF335E
:103F00001430FFF73DBF00003830FFF7B9BF0000A5
:103F10004FF0FF333830FFF7B3BF00001430FFF726
:103F200009BF00004FF0FF311430FFF703BF00005E
:103F30003830FFF763BF00004FF0FF323830FFF733
:103F40005DBF000000207047FFF708BD044B036011
:103F500000234360C0E9023301230374704700BFAC
:103F6000E073000810B52023044683F31188FFF79F
:103F700065FD02232374002383F3118810BD000024
:103F800038B5C36904460D461BB904210844FFF740
:103F9000A9FF294604F11400FFF7B0FE002806DA55
:103FA000201D4FF48061BDE83840FFF79BBF38BD4E
:103FB000026843681143016003B11847704700006D
:103FC00013B5406B00F58054D4F8A4381A68117802
:103FD000042914D1017C022911D1197901231289F4
:103FE0008B4013420BD101A94C3002F003FAD4F8F4
:103FF000A4480246019B2179206800F0DFF902B055
:1040000010BD0000143002F085B900004FF0FF33FE
:10401000143002F07FB900004C3002F057BA0000B3
:104020004FF0FF334C3002F051BA0000143002F070
:1040300053B900004FF0FF31143002F04DB90000C9
:104040004C3002F023BA00004FF0FF324C3002F047
:104050001DBA00000020704710B500F58054D4F858
:10406000A4381A681178042917D1017C022914D1C7
:104070005979012352898B4013420ED1143002F03A
:10408000E5F8024648B1D4F8A4484FF4407361798A
:104090002068BDE8104000F07FB910BD406BFFF70D
:1040A000DBBF0000704700007FB5124B01250426DE
:1040B000044603600023057400F18402436029462E
:1040C000C0E902330C4B0290143001934FF440735B
:1040D000009602F097F8094B04F69442294604F141
:1040E0004C000294CDE900634FF4407302F05EF996
:1040F00004B070BD087400089D400008C13F00086E
:104100000A68202383F311880B790B3342F82300CC
:104110004B79133342F823008B7913B10B3342F8F8
:10412000230000F58053C3F8A4180223037400236E
:1041300083F311887047000038B5037F044613B13C
:1041400090F85430ABB90125201D0221FFF730FF54
:1041500004F114006FF00101257700F0A5FD04F1D2
:104160004C0084F854506FF00101BDE8384000F075
:104170009BBD38BD10B5012104460430FFF718FF80
:104180000023237784F8543010BD000038B504466E
:104190000025143002F04EF804F14C00257702F0AF
:1041A0001DF9201D84F854500121FFF701FF20461E
:1041B000BDE83840FFF750BF90F8803003F060034F
:1041C000202B06D190F881200023212A03D81F2A12
:1041D00006D800207047222AFBD1C0E91D3303E036
:1041E000034A426707228267C3670120704700BF06
:1041F0002C22002037B500F58055D5F8A4381A6870
:10420000117804291AD1017C022917D119790123C7
:1042100012898B40134211D100F14C04204602F068
:104220009DF958B101A9204602F0E4F8D5F8A44858
:104230000246019B2179206800F0C0F803B030BD30
:1042400001F10B03F0B550F8236085B004460D462C
:10425000FEB1202383F3118804EB8507301D08216C
:10426000FFF7A6FEFB6806F14C005B691B681BB1FB
:10427000019002F0CDF8019803A902F0BBF80246C4
:1042800048B1039B2946204600F098F8002383F3A9
:10429000118805B0F0BDFB685A691268002AF5D094
:1042A0001B8A013B1340F1D104F18002EAE70000D0
:1042B000133138B550F82140ECB1202383F3118835
:1042C00004F58053D3F8A4281368527903EB8203D2
:1042D000DB689B695D6845B104216018FFF768FEE3
:1042E000294604F1140001F0BBFF2046FFF7B4FE9D
:1042F000002383F3118838BD7047000001F0AEBA87
:1043000001234022002110B5044600F8303BFCF7A1
:104310006BFE0023C4E9013310BD000010B520235B
:10432000044683F311882422416000210C30FCF7FD
:104330005BFE204601F0B4FA02232370002383F3CE
:10434000118810BD70B500EB8103054650690E461B
:104350001446DA6018B110220021FCF745FEA0696E
:1043600018B110220021FCF73FFE31462846BDE877
:10437000704001F0A7BB000083682022002103F0F9
:10438000011310B5044683601030FCF72DFE204663
:10439000BDE8104001F022BCF0B4012500EB81041F
:1043A00047898D40E4683D43A4694581236000232B
:1043B000A2606360F0BC01F03FBC0000F0B40125D6
:1043C00000EB810407898D40E4683D436469058101
:1043D00023600023A2606360F0BC01F0B5BC000064
:1043E00070B5022300250446242203702946C0F834
:1043F00088500C3040F8045CFCF7F6FD204684F849
:10440000705001F0F3FA63681B6823B12946204617
:10441000BDE87040184770BD037880F88C300523E4
:10442000037043681B6810B504460BB1042198471C
:104430000023A36010BD000090F88C204368027038
:104440001B680BB1052118477047000070B590F844
:104450007030044613B1002380F8703004F18002FC
:10446000204601F0DFFB63689B68B3B994F88030A5
:1044700013F0600535D00021204601F089FE0021AF
:10448000204601F079FE63681B6813B106212046BF
:104490009847062384F8703070BD2046984700285E
:1044A000E4D0B4F88630A26F9A4288BFA36794F92B
:1044B0008030A56F002B4FF0200380F20381002D88
:1044C00000F0F280092284F8702083F31188002123
:1044D0002046D4E91D23FFF771FF002383F31188E1
:1044E000DAE794F8812003F07F0343EA022340F2E5
:1044F0000232934200F0C58021D8B3F5807F48D0C6
:104500000DD8012B3FD0022B00F09380002BB2D1AD
:1045100004F1880262670222A267E367C1E7B3F58C
:10452000817F00F09B80B3F5407FA4D194F8823066
:10453000012BA0D1B4F8883043F0020332E0B3F588
:10454000006F4DD017D8B3F5A06F31D0A3F5C0637D
:10455000012B90D86368204694F882205E6894F816
:104560008310B4F88430B047002884D04368636770
:104570000368A3671AE0B3F5106F36D040F6024225
:1045800093427FF478AF5C4B63670223A3670023F9
:10459000C3E794F88230012B7FF46DAFB4F8883014
:1045A00023F00203A4F88830C4E91D55E56778E7D5
:1045B000B4F88030B3F5A06F0ED194F88230204665
:1045C00084F88A3001F070FA63681B6813B1012126
:1045D00020469847032323700023C4E91D339CE73A
:1045E00004F18B0363670123C3E72378042B10D105
:1045F000202383F311882046FFF7BEFE85F3118840
:104600000321636884F88B5021701B680BB120462E
:10461000984794F88230002BDED084F88B30042346
:10462000237063681B68002BD6D002212046984770
:10463000D2E794F8843020461D0603F00F010AD516
:1046400001F0E2FA012804D002287FF414AF2B4BCA
:104650009AE72B4B98E701F0C9FAF3E794F8823018
:10466000002B7FF408AF94F8843013F00F01B3D01F
:104670001A06204602D501F0A3FDADE701F094FD36
:10468000AAE794F88230002B7FF4F5AE94F88430DA
:1046900013F00F01A0D01B06204602D501F078FDD3
:1046A0009AE701F069FD97E7142284F8702083F3FC
:1046B00011882B462A4629462046FFF76DFE85F3D2
:1046C0001188E9E65DB1152284F8702083F3118822
:1046D00000212046D4E91D23FFF75EFEFDE60B22F4
:1046E00084F8702083F311882B462A4629462046F9
:1046F000FFF764FEE3E700BF387400083074000879
:104700003474000838B590F870300446002B3ED061
:10471000063BDAB20F2A34D80F2B32D8DFE803F089
:10472000373131082232313131313131313137379E
:10473000856FB0F886309D4214D2C3681B8AB5FBE2
:10474000F3F203FB12556DB9202383F311882B4636
:104750002A462946FFF732FE85F311880A2384F89A
:1047600070300EE0142384F87030202383F3118816
:10477000002320461A461946FFF70EFE002383F356
:10478000118838BDC36F03B198470023E7E70021C4
:10479000204601F0FDFC0021204601F0EDFC63689D
:1047A0001B6813B10621204698470623D7E700006F
:1047B00010B590F870300446142B29D017D8062B6A
:1047C00005D001D81BB110BD093B022BFBD800213D
:1047D000204601F0DDFC0021204601F0CDFC63689D
:1047E0001B6813B1062120469847062319E0152BB4
:1047F000E9D10B2380F87030202383F31188002344
:104800001A461946FFF7DAFD002383F31188DAE729
:10481000C3689B695B68002BD5D1C36F03B1984710
:10482000002384F87030CEE704480121044B036074
:104830000023C0E901330C3000F048B910310020EA
:1048400011660008CB1D083A23F00703591A521AC3
:10485000012110B4D2080024C0E9004384600C3068
:104860001C605A605DF8044B00F030B92DE9F84F38
:10487000364ECD1D0F46002818BF0646082A4FEABF
:10488000D50538BF082206F10C08341D9146404674
:1048900000F038F909F10701C9F1000E2246246839
:1048A0006CB9404600F038F93368CBB3082249466A
:1048B000E8009847044698B340E9026730E004EB0B
:1048C000010CD4F804A00CEA0E0C0AF10100ACF1C2
:1048D000080304EBC0009842E0D9A0EB0C0CB5EB48
:1048E000EC0F4FEAEC0BD9D89C421CD204F1080221
:1048F000AB45A3EB02024FEAE202626009D9691CF0
:10490000ED43206803EBC1025D44556043F831007C
:1049100022601C465F60404644F8086B00F0FCF8DB
:104920002046BDE8F88FAA45216802D111602346D0
:10493000EFE7013504EBC50344F8351003F1080136
:10494000401AC01058601360F1E700BF103100201A
:10495000024B0022C3E900339A60704728310020DF
:10496000002382680374054B1B6899689142FBD24F
:104970005A68036042601060586070472831002018
:1049800008B5202383F31188027C0023052A06D86A
:10499000DFE802F00B050503120E426913604FF0C9
:1049A000FF334361FFF7DCFF002383F3118808BD69
:1049B0004269936801339360D0E9003213605A6012
:1049C000EDE70000002382680374054B1B689968BB
:1049D0009142FBD85A68036042601060586070478B
:1049E00028310020054B1969087418680268536063
:1049F0001A60186101230374FBF790BD2831002071
:104A00004B1C30B5044687B00A4D10D02B6901A865
:104A1000094A00F065F92046FFF7E4FF049B13B153
:104A200001A800F099F92B69586907B030BDFFF76C
:104A3000D9FFF8E7283100208149000838B50C4D2E
:104A4000044641612B6981689A68914203D8BDE8A8
:104A50003840FFF785BF1846FFF7B4FF01232C61EC
:104A6000014623742046BDE83840FBF757BD00BF20
:104A700028310020044B1A681B6990689B68984293
:104A800094BF0020012070472831002010B5084C49
:104A9000236820691A6854602260012223611A7415
:104AA000FFF790FF01462069BDE81040FBF736BDD7
:104AB0002831002008B5FFF7DDFF18B1BDE8084038
:104AC000FFF7E4BF08BD0000FFF7E0BFC0E900004A
:104AD000816070478368013B002B10B583600DDA5D
:104AE000074C42682369586118605A60136043603C
:104AF0000520FFF777FF2369586910BD0020FCE708
:104B00002831002008B5202383F31188FFF7E2FF46
:104B1000002383F3118808BD08B5202383F311888F
:104B200083680133002B836007DC036800211A6867
:104B3000026050601846FFF781FF002383F311885D
:104B400008BD0000FEE7000010B50E4CFFF700FFA7
:104B500000F0B8F801F03EFDFFF766FE80220A493A
:104B6000204600F03BF8012344F8180C037400F0D1
:104B700053FD002383F3118862B60448BDE810405A
:104B800000F04CB8503100203C7400084C74000810
:104B900000F01CB9EFF3118020B9EFF30583202258
:104BA00082F311887047000010B530B9EFF3058427
:104BB000C4F3080414B180F3118810BDFFF77AFF25
:104BC00084F31188F9E70000034A516853685B1ABF
:104BD0009842FBD8704700BF001000E082600222BC
:104BE000028270478368A3F17C0243F80C2C0269AF
:104BF00043F83C2C426943F8382C074A43F81C2CF4
:104C0000C268A3F1180043F8102C022203F8082C04
:104C1000002203F8072C70473505000810B5202343
:104C200083F31188FFF7DEFF00210446FFF706FF3C
:104C3000002383F31188204610BD0000024B1B693E
:104C400058610F20FFF7CEBE28310020202383F3C8
:104C50001188FFF7F3BF000008B50146202383F356
:104C600011880820FFF7CCFE002383F3118808BDCC
:104C700049B1064B42681B6918605A601360436073
:104C80000420FFF7BDBE4FF0FF30704728310020F1
:104C90000368984206D01A6802605060184659614D
:104CA000FFF75EBE7047000038B504460D46206829
:104CB000844200D138BD036823605C604561FFF722
:104CC0004FFEF4E7054B4FF0FF3103F11402C3E947
:104CD00005220022C3E90712704700BF28310020D7
:104CE00070B51C4E05460C46C0E9032301F06CFC70
:104CF000334653F8142F9A420DD130620A2C2CBF40
:104D000000190A302A60C5E90124C6E90555BDE845
:104D1000704001F043BC316A431AE31838BF1C46A7
:104D20009368A34202D9081901F048FC73699A6894
:104D300094420CD85A68AC602B606A6015609A681F
:104D40005D60121B9A604FF0FF33F36170BDA41ACF
:104D50001B68ECE72831002038B51B4C636998428A
:104D60000DD08168D0E9003213605A600022C26021
:104D70009A680A449A604FF0FF33E36138BD0368D4
:104D80002246002142F8143F93425A60C16003D189
:104D9000BDE8384001F00CBC9A688168256A0A4475
:104DA0009A6001F011FC6369411B9A688A42E5D957
:104DB000AB181D1A206A092D98BF01F10A02BDE83F
:104DC0003840104401F0FABB283100202DE9F041B1
:104DD000184C002704F11406656901F0F5FB236AFD
:104DE000AA68C11A8A4215D81344D5F80C802362E8
:104DF000D5E9003213605A606369EF60B34201D1B4
:104E000001F0D6FB87F311882869C047202383F37C
:104E10001188E1E76169B14209D013441B1ABDE86A
:104E2000F0410A2B2CBFC0180A3001F0C7BBBDE807
:104E3000F08100BF2831002000207047FEE700000D
:104E4000704700004FF0FF307047000002290CD07F
:104E5000032904D00129074818BF00207047032AFE
:104E600005D8054800EBC200704704487047002091
:104E7000704700BF3C7500083C220020F074000819
:104E800070B59AB005460846144601A900F0C2F86C
:104E900001A8FCF7A1F8431C0022C6B25B00104633
:104EA000C5E9003423700323023404F8013C01AB4C
:104EB000D1B202348E4201D81AB070BD13F8011B72
:104EC000013204F8010C04F8021CF1E708B52023B4
:104ED00083F311880348FFF78DF9002383F31188CA
:104EE00008BD00BFE032002090F8803003F01F02C0
:104EF000012A07D190F881200B2A03D10023C0E9B1
:104F00001D3315E003F06003202B08D1B0F8843086
:104F10002BB990F88120212A03D81F2A04D8FFF743
:104F20004BB9222AEBD0FAE7034A4267072282678D
:104F3000C3670120704700BF3322002007B5052951
:104F400017D8DFE801F0191603191920202383F37D
:104F50001188104A01210190FFF7F4F9019802210C
:104F60000D4AFFF7EFF90D48FFF710F9002383F31F
:104F7000118803B05DF804FB202383F311880748F0
:104F8000FFF7DAF8F2E7202383F311880348FFF7ED
:104F9000F1F8EBE790740008B4740008E0320020E8
:104FA00038B50C4D0C4C2A460C4904F10800FFF7AB
:104FB00067FF05F1CA0204F110000949FFF760FF1D
:104FC00005F5CA7204F118000649BDE83840FFF73C
:104FD00057BF00BFB84B00203C220020647400087B
:104FE000717400088774000870B5044608460D46C1
:104FF000FBF7F2FFC6B22046013403780BB918461E
:1050000070BD32462946FBF7D3FF0028F3D10120BB
:10501000F6E700002DE9F84F05460C46FBF7DCFFEC
:105020002B49C6B22846FFF7DFFF2A492846FFF77B
:10503000DBFF08B11036F6B2632E0DD8DFF8908092
:10504000DFF89090244FDFF898A0DFF898B02E7822
:1050500046B92670BDE8F88F29462046BDE8F84FCE
:1050600001F0BEBE252E2ED1072241462846FBF771
:105070009FFF70B9DBF800300735073444F8073C70
:10508000BBF8043024F8033C9BF8063004F8013CDC
:10509000DDE7082249462846FBF78AFF98B9A21C9B
:1050A0000E4B197802320909C95D02F8041C13F885
:1050B000011B01F00F015345C95D02F8031CF0D13B
:1050C00018340835C3E7013504F8016BBFE700BFAA
:1050D0005C750008877400086C75000800E8F11F13
:1050E0000CE8F11F64750008BFF34F8F044B1A6979
:1050F0005107FCD1D3F810215207F8D1704700BFF7
:105100000020005208B50D4B1B78ABB9FFF7ECFF40
:105110000B4BDA68D10704D50A4A5A6002F188328B
:105120005A60D3F80C21D20706D5064AC3F80421E9
:1051300002F18832C3F8042108BD00BF164E0020DA
:10514000002000522301674508B5114B1B78F3B9C5
:10515000104B1A69510703D5DA6842F04002DA6051
:10516000D3F81021520705D5D3F80C2142F04002A4
:10517000C3F80C21FFF7B8FF064BDA6842F00102D2
:10518000DA60D3F80C2142F00102C3F80C2108BD0B
:10519000164E0020002000520F289ABF00F58060B4
:1051A00040040020704700004FF4003070470000BA
:1051B000102070470F2808B50BD8FFF7EDFF00F55A
:1051C00000330268013204D104308342F9D1012056
:1051D00008BD0020FCE700000F2870B5054645D843
:1051E000FFF7D8FC224CFFF77FFF0646FFF78AFF48
:1051F0004FF0FF33072D6361C4F8143120D82361C9
:10520000FFF772FF2B0243F02403E360E36843F0EF
:105210008003E36023695A07FCD42846FFF764FF44
:105220004FF40031FFF7B8FF00F0B0F93046FFF758
:105230008BFFFFF7B9FC2846BDE87040FFF7BABF07
:10524000C4F81031FFF750FFA5F108031B0243F02B
:105250002403C4F80C31D4F80C3143F08003C4F8B3
:105260000C31D4F810315B07FBD4D6E7002070BDB9
:10527000002000522DE9F84F40EA020305460C4693
:105280001746D80602D00020BDE8F88F27F01F0788
:10529000DFF8D4B0FFF736FF2744BC4203D101202A
:1052A000FFF752FFF0E720222946204601F066FD75
:1052B00010B920352034F0E72B4605F120021E6896
:1052C000711CE0D104339A42F9D1FFF763FC05F178
:1052D0007843234AB3F5801F224B28BF9A4603F137
:1052E000040338BF9046A2F1080228BF9846A3F1F4
:1052F00008033ABF9146DA469946FFF7F5FEC8F82B
:105300000060A5EB040CD9F8002004F11C0142F068
:105310000202C9F80020221FDAF8006016F0050624
:10532000FAD152F8043F8A424CF80230F4D1BFF36C
:105330004F8FFFF7D9FE4FF0FF32C8F80020D9F8A1
:10534000002022F00202C9F80020FFF72DFC2022E5
:105350002146284601F012FD0028AAD030469FE7DA
:1053600014200052102100521020005210B5084C99
:10537000237828B11BB9FFF7C5FE0123237010BDA8
:10538000002BFCD02070BDE81040FFF7DDBE00BF51
:10539000164E00202DE9F74F0E460546002864D032
:1053A00011F0050763D139B9082229463046FFF7C5
:1053B0005DFA0446002848D108224FF00109DFF8C1
:1053C000C08006F00403DFF8BCA006EA090BBBF1BD
:1053D000000F27D0D8F81410C80723D409F1010909
:1053E00008F10C08B9F1060FF1D18FB9224E294608
:1053F000F0190092FFF73AFA044630BB1837009ACA
:10540000782FF4D12946FFF731FA0446E8B9009A1B
:1054100029461A48FFF72AFA044608BB204603B07B
:10542000BDE8F08FABB1D8F8141011F0040FD5D04F
:105430001820294600FB09A0CDE90023FFF716FA42
:105440000446DDE900230028C8D02A460021204672
:1054500008E0B107ECD5D8F8141011F0020FE6E718
:105460002A460021FBF7C0FDD8E70446D6E71F35E2
:10547000202225F01F05A0E7484E0020184E0020EE
:1054800080750008304E00200121FFF783BF000027
:10549000F8B5144D01241827134E40F2FF320021B5
:1054A0000120FBF7A1FD07FB046001342A6955F8D0
:1054B0000C1FFFF7C7F9062CF5D137254FF4C05460
:1054C0002046FFF7E1FF014628B122460748BDE824
:1054D000F840FFF7B7B9C4EBC404013D4FEAD40468
:1054E000EED1F8BD80750008304E0020184E002027
:1054F0000244074BD2B210B5904200D110BD441CFB
:1055000000B253F8200041F8040BE0B2F4E700BF0A
:10551000504000580E4B30B51C6F240405D41C6F4E
:105520001C671C6F44F400441C670A4C0244236847
:10553000D2B243F480732360074B904200D130BD58
:10554000441C51F8045B00B243F82050E0B2F4E789
:1055500000440258004802585040005807B5012244
:1055600001A90020FFF7C4FF019803B05DF804FB18
:1055700013B50446FFF7F2FFA04205D0012201A9AE
:1055800000200194FFF7C6FF02B010BD0144BFF335
:105590004F8F064B884204D3BFF34F8FBFF36F8FFB
:1055A0007047C3F85C022030F4E700BF00ED00E074
:1055B00000207047034B1A681AB9034AD2F8D02466
:1055C0001A607047C04E00200040025808B5FFF72F
:1055D000F1FF024B1868C0F3806008BDC04E002088
:1055E000CAB201460120FFF795BF0000CAB20146CA
:1055F0000120FFF77DBF0000EFF309830549683301
:105600004A6B22F001024A6383F30988002383F383
:105610001188704700EF00E0202080F3118862B607
:105620000D4B0E4AD96821F4E0610904090C0A43C4
:105630000B49DA60D3F8FC2042F08072C3F8FC20FA
:10564000084AC2F8B01F116841F001011160102230
:10565000DA7783F82200704700ED00E00003FA05D6
:1056600055CEACC5001000E0202310B583F311889F
:105670000E4B5B6813F4006314D0F1EE103AEFF3B5
:1056800009844FF08073683CE361094BDB6B236650
:1056900084F30988FFF7EEF910B1064BA36110BD42
:1056A000054BFBE783F31188F9E700BF00ED00E04D
:1056B00000EF00E0470500084A05000870B5BFF399
:1056C0004F8FBFF36F8F1A4A0021C2F85012BFF3F9
:1056D0004F8FBFF36F8F536943F400335361BFF3B0
:1056E0004F8FBFF36F8FC2F88410BFF34F8FD2F884
:1056F000803043F6E074C3F3C900C3F34E335B015B
:1057000003EA0406014646EA81750139C2F860528F
:10571000F9D2203B13F1200FF2D1BFF34F8F536921
:1057200043F480335361BFF34F8FBFF36F8F70BD6E
:1057300000ED00E0FEE700000A4B0B480B4A9042E8
:105740000BD30B4BC11EDA1C121A22F003028B4240
:1057500038BF00220021FBF747BC53F8041B40F878
:10576000041BECE7947700089C5000209C5000201C
:105770009C5000207047000070B5D0E924430022FF
:105780004FF0FF359E6804EB42135101D3F8000936
:10579000002805DAD3F8000940F08040C3F800097A
:1057A000D3F8000B002805DAD3F8000B40F0804056
:1057B000C3F8000B013263189642C3F80859C3F8C6
:1057C000085BE0D24FF00113C4F81C3870BD000034
:1057D00000EB8103D3F80CC02DE9F043DCF8142072
:1057E0004E1CD0F89050D2F800E005EB063605EBE1
:1057F0004118506870450AD30122D5F8343802FAAE
:1058000001F123EA0101C5F83418BDE8F083AEEBDD
:105810000003BCF81040A34228BF2346D8F818491B
:10582000A4B2B3EB840FF0D89468A4F1040959F83A
:10583000047F3760A4EB09071F44042FF7D81C44EA
:10584000034494605360D4E7890141F02001016171
:1058500003699B06FCD41220FFF7B6B910B50A4CB9
:105860002046FEF74DFD094BC4F89030084BC4F8B4
:105870009430084C2046FEF743FD074BC4F89030A7
:10588000064BC4F8943010BDC44E00200000084000
:10589000EC750008604F002000000440F875000817
:1058A00070B503780546012B5DD1494BD0F8904087
:1058B000984259D1474B0E216520D3F8D82042F0A9
:1058C0000062C3F8D820D3F8002142F00062C3F888
:1058D0000021D3F80021D3F8802042F00062C3F801
:1058E0008020D3F8802022F00062C3F88020D3F813
:1058F000803000F071FC384BE360384BC4F800385E
:105900000023D5F89060C4F8003EC02323604FF414
:105910000413A3633369002BFCDA01230C203361E9
:10592000FFF752F93369DB07FCD41220FFF74CF97B
:105930003369002BFCDA00262846A660FFF71CFF1F
:105940006B68C4F81068DB68C4F81468C4F81C6895
:10595000002B3AD1224BA3614FF0FF336361A36860
:1059600043F00103A36070BD1E4B9842C8D1194B90
:105970000E214D20D3F8D82042F00072C3F8D82071
:10598000D3F8002142F00072C3F80021D3F80021BF
:10599000D3F8802042F00072C3F88020D3F8802032
:1059A00022F00072C3F88020D3F88020D3F8D820EA
:1059B00022F08062C3F8D820D3F8002122F0806260
:1059C000C3F80021D3F8003193E7074BC3E700BFCA
:1059D000C44E00200044025840140040030020023E
:1059E000003C30C0604F0020083C30C0F8B5D0F813
:1059F0009040054600214FF000662046FFF724FF47
:105A0000D5F8941000234FF001128F684FF0FF304B
:105A1000C4F83438C4F81C2804EB431201339F4205
:105A2000C2F80069C2F8006BC2F80809C2F8080B96
:105A3000F2D20B68D5F89020C5F898306362102335
:105A40001361166916F01006FBD11220FFF7BCF89F
:105A5000D4F8003823F4FE63C4F80038A36943F493
:105A6000402343F01003A3610923C4F81038C4F89D
:105A700014380B4BEB604FF0C043C4F8103B094B9C
:105A8000C4F8003BC4F81069C4F80039D5F8983060
:105A900003F1100243F48013C5F89820A362F8BD07
:105AA000C875000840800010D0F8902090F88A1047
:105AB000D2F8003823F4FE6343EA0113C2F8003839
:105AC000704700002DE9F84300EB8103D0F89050B7
:105AD0000C468046DA680FFA81F94801166806F02C
